:1000000004308A00AB2C0000FF00030E8301A10026
:100010000A08A0008A010408A2007708A300780853
:10002000A4007908A5007A08A600831383128C30F7
:100030008400001C1D280C182E2822088400230888
:10004000F7002408F8002508F9002608FA0020081F
:100050008A00210E8300FF0E7F0E09008A110A120A
:1000600087280A108A100A11820728340C340134B8
:1000700006340A108A100A1182074C3475346E3423
:100080006534733400340A108A100A1182074D3423
:100090006134723474346534733400340A108A1055
:1000A0000A1182074D3469346534723463346F3415
:1000B00000340A108A100A1182074A3475346534F4
:1000C00076346534733400340A108A100A118207BA
:1000D00056346934653472346E34653473340034A4
:1000E0000A108A100A118207533461346234613471
:1000F00064346F3400340A108A100A1182074434C1
:100100006F346D3469346E3467346F340034281CB6
:100110008F2883168610023083128606AB0A0B30B6
:100120008F00DC308E000130A8062B083B3C031802
:100130009B28AB01AA0A0C108A110A121D280C2454
:100140006F39611D20102010A012301975050000B4
:10015000CD34EE3AF4373A1020102518B23A0001A7
:10016000CD34EE3AF4373A1020102518B23A000197
:10017000CD34EE3AF4373A1020102518B23A000187
:10018000C837F2303A10201020102518B23A00017A
:10019000C837F2303A10201020102518B23A00006B
:1001A0008C20EE346F1D20102010A0123019750520
:1001B0000001CD32731D2010201020102518B23AF6
:1001C0000001CD32731D2010201020102518B23AE6
:1001D0000001CD32731D2010201020102518B23AD6
:1001E00000014137E9373A10201020102518B23AA3
:1001F00000014137E9373A10201020102518B23A93
:1002000000010C22E9303A1020102010A012301901
:1002100075050001C434E139E5363A10201025187F
:10022000B23A0001C434611D20102010201025189E
:10023000B23A0001C434611D20102010201025188E
:10024000B23A0001C434E139E5363A1020102518DD
:10025000B23A0001C434E139E5363A1020102518CD
:10026000B23A00000C26611041366139ED30A032FF
:10027000733A611D0000A110C131F434F630E4304E
:100280002E172E172E1700012E172E22E539E131D9
:10029000F434F630E430A11000010C246F39611DF4
:1002A00020102010A01230197500CD34EE3AF4372A
:1002B0003A1020102518B23A0001CD34EE3AF43746
:1002C0003A1020102518B23A0001CD34EE3AF43736
:1002D0003A1020102518B23A0001C837F2303A100F
:1002E000201020102518B23A0001C837F2303A1019
:1002F000201020102518B23A00008C104126412908
:10030000CD20A020432A492B412241000C1020106F
:100310002010C430F2346F1020102010200500018E
:1003200020102022E9307A10C230653D20102010C4
:1003300000008C2665377510E432A020EA3A733A43
:10034000E5390A00AD162D1FC3376E33E93320247B
:100350006F3961008C2665377510E432A020EA3AC7
:10036000733AE5390A00AD162D1FC3376E33E933F2
:1003700020246F3961008C2665377510E432A02087
:10038000EA3A733AE5390A00AD162D1FC3376E33CA
:10039000E9332023E531E83000018C2665377510FC
:1003A000E432A020EA3A733AE5390A00AD162D1F6F
:1003B000C3376E33E9332023E531E83000018C2662
:1003C00065377510E432A020EA3A733AE5390A003D
:1003D000AD162D1FC3376E33E933A020EC30F23653
:1003E00000018C2665377510E432A020EA3A733A92
:1003F000E5390A00AD162D1FC3376E33E933A0204F
:10040000EC30F23600018C2665377510E432A020FE
:10041000EA3A733AE5390A00AD162D1F4937E63737
:10042000F236E131E9376E008C2665377510E4321B
:10043000A020EA3A733AE5390A00AD162D1F493774
:10044000E637F236E131E9376E008C2665377510F4
:10045000E432A020EA3A733AE5390A00AD16AD1647
:10046000AD16AD162D1FA0296136693900010C109B
:100470002010A0123019751D2518B23ABA12301981
:1004800075050001411D4F270001411D4F23460006
:100490004F3084008313000803195C2A0130F800F0
:1004A000F701F70B512AF80B502A4A30F700F70BE7
:1004B000572A5A2A800B4E2A08005618612A07121A
:1004C000622A071627122708831687008312D61878
:1004D0006B2A87126C2A8716A712270883168700B3
:1004E00083125619752A0713762A07172713270828
:1004F000831687008312D6197F2A8713802A8717CD
:10050000A71327088316870000008312A711270866
:1005100083168700831287158D2AA7112708831653
:100520008700831287110800271127088316870088
:10053000831207111330F700F70B9C2A9F2AD30868
:100540000319A92A27112708831687008312071584
:10055000AF2A27112708831687008312071100008E
:10056000A71127088316870083128711540ED50020
:100570000F30D5055508D6005D2254080F39D50037
:10058000D6005D22080027112708831687008312F2
:100590000711A711270883168700831287110F30D0
:1005A000CF004822C8014808023C031CDF2A033060
:1005B000D6005D220530CF004822C80AD32A023077
:1005C000D6005D22C8014808033C031CF32A4808F2
:1005D0003120C900D3014908D40094220530CF004E
:1005E0004822C80AE32A8A110A12E92C500BF92A78
:1005F000FC2A4030D100FD2AD10101304F02D10741
:1006000051088038D200D3015208D4009422080047
:100610004E080C3A0319132B063A03191B2B023A06
:100620000319212B262BD3010130D4009422023050
:10063000CF0048222C2B0130CF000230D000F62210
:100640002C2BD3011030D40094222C2B0130D3005A
:100650004E08D40094222C2B0800831603178C1705
:100660000C140000000083120C087F390319712B51
:100670000313C90003170D080313CA0003170F085B
:100680000313CB004908CE0008234A0803178D0046
:1006900003134B0803178F0083168C170C140000EC
:1006A000000083120C0D0E0D7F390319712B0313FB
:1006B000C90003170D080313CA0003170F0803131B
:1006C000CB004908CE0008234A0803178D00031306
:1006D0004B0803178F008D0A03198F0A03132D2B64
:1006E000031703130800831603178C170C1400005C
:1006F00000000318A22B83120C087F390313CA00D1
:1007000003170D080313CB0003170F080313CC00C6
:100710004A08CE0008234B0803178D0003134C082A
:1007200003178F0083168C170C140000000083122F
:100730000313C90B9C2B9F2B83160317A22BC12BD2
:100740008316031783120C0D0E0D7F390313CA0095
:1007500003170D080313CB0003170F080313CC0076
:100760004A08CE0008234B0803178D0003134C08DA
:1007700003178F008D0A03198F0A03100313C90B87
:10078000732B08004F08F8014E020318CA2B4E08BD
:10079000F700D62BF7010830D000CE0DF70D4F082B
:1007A00077020318F700F80DD00BCD2B080078085E
:1007B0004908CE006430CF00C2237708C90078080A
:1007C0003030031DEA2BCA1CF12BCA19F12B4A1A2F
:1007D0002030ED2BCA114A124A14F8077808CE00CF
:1007E00008234908CE000A30CF00C2237708C90089
:1007F00078083030031D022CCA19062C4A1C062C1E
:100800004A1A2030F8077808CE0008233030C9078C
:100810004908CE000823080080080319212CCA01CA
:100820000408C9004A10831B4A140008CE0008239C
:100830004908840083134A188317840A0319850A18
:100840000C2C08007D3003178D0001308F0003133E
:100850002D2383160611043083128606C830CF007C
:100860004822831685168312851E292C0230C80063
:100870009630CF004822C80B382C831606118312FD
:1008800006110230AF008A110A12C52D2030491E10
:100890003030CA004808F700C81F552CF709F70A7E
:1008A0007708C8002D30CA00C9174808CE00643048
:1008B000CF00C2237708C80030307807CB00480843
:1008C000CE000A30CF00C22330307707CD00303061
:1008D0007807CC004A08F700C91D702CC91F4911C0
:1008E000491A7D2CC91F982C4919982C7708CB00E0
:1008F000C918982C7708CC00982C30304B02031D77
:10090000982C7708CB002030CA00C91D8B2C4911C8
:10091000C914C91FC91030304C02031D982C770828
:10092000CC002030CB00C91D8B2CC910C91F491029
:10093000491D9D2C4A08CE000823C91CA22C4B0837
:10094000CE000823491CA72C4C08CE0008234D08D4
:10095000CE0008230800840183131F308305FF3075
:10096000A7002810A901AA01AB010130AC00AD001D
:100970001030AE000130AF00B20083161F149F1478
:100980001F159F1107309C008312B3011F30B40064
:100990001C30B5001F30B6001E30B7001F30B80045
:1009A0001E30B9001F30BA00BB001E30BC001F3023
:1009B000BD001E30BE001F30BF004830C0006F3089
:1009C000C1006C30C2002030C300C400C500C601A5
:1009D000C32AB53090000B308F00DC308E008316B8
:1009E0000C14C03083128B04831685168312851E67
:1009F000FC2C8A1500288A112A083B3C0318BA2DC2
:100A0000AA01A90A2908173C0318BA2DA901AC0AA2
:100A1000B20A33302D078400831300082C02031917
:100A2000302D031C302D0130AC00AD0A2D080C3CDC
:100A300003182A2D0130AD00AE0A2E08323C031CEB
:100A4000AE012E080339031D282D1D30B5002A2DB7
:100A50001C30B5003208073C0318302D0130B200BD
:100A6000320B422DC801C90140308400831348086D
:100A7000840749083920800000380319422DC90A2B
:100A8000C80A342D3208023C031D562DC801C90185
:100A900040308400831348088407490843208000BD
:100AA00000380319562DC90AC80A482D3208033CDC
:100AB000031D6A2DC801C901403084008313480812
:100AC000840749084E208000003803196A2DC90A9E
:100AD000C80A5C2D3208043C031D7E2DC801C901E3
:100AE0004030840083134808840749085920800057
:100AF000003803197E2DC90AC80A702D3208053C3A
:100B0000031D922DC801C901403084008313480899
:100B1000840749086420800000380319922DC90A0F
:100B2000C80A842D3208063C031DA62DC801C90140
:100B300040308400831348088407490870208000EF
:100B400000380319A62DC90AC80A982D3208073C97
:100B5000031DBA2DC801C901403084008313480821
:100B6000840749087B20800000380319BA2DC90A80
:100B7000C80AAC2D2F0BC52D30082902031DC52D29
:100B800031082A02031DC52D222C2F0B0D2E0A30F1
:100B9000CF000230D000F6220C30CE0008234030C7
:100BA000840083130C242030CE0008232C08C800B6
:100BB0000130C90046242F30CE0008232D08C8007C
:100BC0000130C90046242F30CE0008232E08C8006B
:100BD0000130C90046240A30CE0008232908C80085
:100BE0000130C90046243A30CE0008232A08C80044
:100BF0000130C90046243A30CE0008232B08C80033
:100C00000130C90046242030CE00082342300317AB
:100C10008D0002308F0003132D23AF08031D562EC5
:100C20000A30CF000230D000F6220C30CE0008236C
:100C30004030840083130C242030CE0008232C087D
:100C4000C8000130C90046242F30CE0008232D08EB
:100C5000C8000130C90046242F30CE0008232E08DA
:100C6000C8000130C90046240A30CE0008232908F4
:100C7000C8000130C90046243A30CE0008232A08B3
:100C8000C8000130C90046243A30CE0008232B08A2
:100C9000C8000130C90046242030CE00082345306A
:100CA00003178D0002308F0003132D23C830CF00AF
:060CB0004822F42C630051
:101000000130C8000230C9009630CF008A11482252
:101010008A15C90B0428C808031D10280530C8000C
:101020004808053C031816280130C8000230C900E2
:101030009630CF008A1148228A15C90B1828013032
:101040004802FB3E0318BB2D053EC82E99300317FE
:101050008D0001308F008A1103132D238A15A230D1
:1010600003178D0001308F008A1103132D238A1579
:10107000831685168312851E44290230C9009630D6
:10108000CF008A1148228A15C90B3F289F300317C9
:101090008D0000308F0003100B300313C9008A113C
:1010A00073238A152908C9000130CA008A11D72381
:1010B0008A150A30CE008A1108238A15A830031732
:1010C0008D0000308F0003100A300313C9008A110D
:1010D00073238A152A08C9000130CA008A11D72350
:1010E0008A15831605168312051E9E28AA0A2A0849
:1010F0003B3C031CAA010130CF000230D0008A1112
:10110000F6228A15B03003178D0000308F000310CF
:101110000A300313C9008A1173238A152A08C900EB
:101120000130CA008A11D7238A150230C9009630CF
:10113000CF008A1148228A15C90B97288316851576
:101140008312851DCB28AA032A0FA8283B30AA00AA
:101150000130CF000230D0008A11F6228A15B83053
:1011600003178D0000308F0003100A300313C900ED
:101170008A1173238A152A08C9000130CA008A110E
:10118000D7238A150230C9009630CF008A11482231
:101190008A15C90BC428831685148312851CF72869
:1011A000A90A2908173C031CA9010130CF00D0006F
:1011B0008A11F6228A15C03003178D0000308F0087
:1011C00003100A300313C9008A1173238A152908F2
:1011D000C9000130CA008A11D7238A150230C9001C
:1011E0009630CF008A1148228A15C90BF028831641
:1011F00005158312051D2329A903290F012917307D
:10120000A9000130CF00D0008A11F6228A15C8301B
:1012100003178D0000308F0003100A300313C9003C
:101220008A1173238A152908C9000130CA008A115E
:10123000D7238A150230C9009630CF008A11482280
:101240008A15C90B1C29831685168312851E7128E1
:101250000230C9009630CF008A1148228A15C90B86
:101260002A29AB01AA3003178D0001308F008A11A3
:1012700003132D238A15B33003178D0001308F001F
:101280008A1103132D238A1583168514831285185A
:101290004E29831605158312051D382883168514DB
:1012A00083128518C8038316051583120519C80A09
:1012B000BB2DBB3003178D0001308F008A11031343
:1012C0002D238A15C43003178D0001308F008A1139
:1012D00003132D238A15831685168312851E862BEC
:1012E0000230C9009630CF008A1148228A15C90BF6
:1012F0007229D03003178D0000308F0003100B309F
:101300000313C9008A1173238A152E08C9000130FE
:10131000CA008A11D7238A150A30CE008A11082301
:101320008A15D93003178D0000308F0003100A3062
:101330000313C9008A1173238A152D08C9000130CF
:10134000CA008A11D7238A15831605168312051E33
:10135000D329AD0A2D080C3C0318B0290130AD008B
:101360000130CF000230D0008A11F6228A15E13018
:1013700003178D0000308F0003100A300313C900DB
:101380008A1173238A152D08C9000130CA008A11F9
:10139000D7238A150230C9009630CF008A1148221F
:1013A0008A15C90BCC29831685158312851DFF2943
:1013B000AD0BDC290C30AD000130CF000230D00085
:1013C0008A11F6228A15E93003178D0000308F004C
:1013D00003100A300313C9008A1173238A152D08DC
:1013E000C9000130CA008A11D7238A150230C9000A
:1013F0009630CF008A1148228A15C90BF829831626
:1014000085148312851C342AAE0A2E08323C031C34
:10141000AE012E080339031D102A1D30B500122A13
:101420001C30B5000130CF00D0008A11F6228A1599
:10143000F13003178D0000308F0003100A300313C2
:10144000C9008A1173238A152E08C9000130CA0009
:101450008A11D7238A150230C9009630CF008A112D
:1014600048228A15C90B2D2A831605158312051DDE
:10147000692AAE032E0F3E2A3230AE002E08033901
:10148000031D452A1D30B500472A1C30B500013028
:10149000CF00D0008A11F6228A15F93003178D008B
:1014A00000308F0003100A300313C9008A11732320
:1014B0008A152E08C9000130CA008A11D7238A155F
:1014C0000230C9009630CF008A1148228A15C90B14
:1014D000622A831685168312851EA4290230C9004C
:1014E0009630CF008A1148228A15C90B702A013024
:1014F000CF00D0008A11F6228A15013003178D0023
:1015000001308F0003100B300313C9008A117323BD
:101510008A152C08C9000130CA008A11D7238A1500
:101520000A30CE008A1108238A150A3003178D006D
:1015300001308F0003100A300313C9008A1173238E
:101540008A153208C9000130CA008A11D7238A15CA
:10155000831605168312051EDC2AAC0A33302D07CC
:101560008400831300082C020319BA2A031CBA2A28
:101570000130AC000130CF00D0008A11F6228A156C
:10158000123003178D0001308F0003100A3003134F
:10159000C9008A1173238A152C08C9000130CA00BA
:1015A0008A11D7238A150230C9009630CF008A11DC
:1015B00048228A15C90BD52A831685158312851DE5
:1015C0000B2BAC0BE92A33302D0784008313000862
:1015D000AC000130CF00D0008A11F6228A151A30F3
:1015E00003178D0001308F0003100A300313C90068
:1015F0008A1173238A152C08C9000130CA008A1188
:10160000D7238A150230C9009630CF008A114822AC
:101610008A15C90B042B831685148312851C3A2B5B
:10162000B20A3208073C0318172B0130B200013010
:10163000CF000230D0008A11F6228A15223003171B
:101640008D0001308F0003100A300313C9008A1186
:1016500073238A153208C9000130CA008A11D723C2
:101660008A150230C9009630CF008A1148228A15A7
:10167000C90B332B831605158312051D662BB20B80
:10168000432B0730B2000130CF000230D0008A1166
:10169000F6228A152A3003178D0001308F000310BF
:1016A0000A300313C9008A1173238A153208C9004E
:1016B0000130CA008A11D7238A150230C90096303A
:1016C000CF008A1148228A15C90B5F2B8316851615
:1016D0008312851EA82A0230C9009630CF008A11D5
:1016E00048228A15C90B6D2BCD3003178D000130B0
:1016F0008F008A1103132D238A15D63003178D000E
:1017000001308F008A1103132D238A158316851447
:1017100083128518902B831605158312051D6B29DE
:101720008316851483128518C80383160515831242
:101730000519C80ABB2DDF3003178D0001308F005B
:101740008A1103132D238A15E83003178D00013009
:101750008F008A1103132D238A1583168516831291
:10176000851E0D2D0230C9009630CF008A11482207
:101770008A15C90BB42B01302A07B1002908B00023
:10178000323003178D0001308F008A1103132D238F
:101790008A152F0BDC2B0130CF000230D0008A11CC
:1017A000F6228A153B3003178D0001308F008A1115
:1017B00003132D238A15EC2B0130CF000230D0000B
:1017C0008A11F6228A15443003178D0001308F00EC
:1017D0008A1103132D238A15831685148312851C01
:1017E000F32B0130AF00831605158312051DFA2B6C
:1017F0000230AF00831685168312851EC92B023076
:10180000C9009630CF008A1148228A15C90B012CD5
:101810000130CF00D0008A11F6228A154D3003170F
:101820008D0001308F0003100B300313C9008A11A3
:1018300073238A153008C9000130CA008A11D723E2
:101840008A150130CF000230D0008A11F6228A15A5
:10185000553003178D0001308F0003100A30031339
:10186000C9008A1173238A153108C9000130CA00E2
:101870008A11D7238A15831605168312051E682C34
:10188000B10A31083B3C031CB1010130CF000230EA
:10189000D0008A11F6228A155D3003178D000130C1
:1018A0008F0003100A300313C9008A1173238A15AD
:1018B0003108C9000130CA008A11D7238A150230C5
:1018C000C9009630CF008A1148228A15C90B612CB5
:1018D000831685158312851D952CB103310F722C4B
:1018E0003B30B1000130CF000230D0008A11F62227
:1018F0008A15653003178D0001308F0003100A3000
:101900000313C9008A1173238A153108C9000130F5
:10191000CA008A11D7238A150230C9009630CF0039
:101920008A1148228A15C90B8E2C831685148312BE
:10193000851CC12CB00A3008173C031CB0010130D3
:10194000CF00D0008A11F6228A156D3003178D0062
:1019500001308F0003100A300313C9008A1173236A
:101960008A153008C9000130CA008A11D7238A15A8
:101970000230C9009630CF008A1148228A15C90B5F
:10198000BA2C831605158312051DED2CB003300FFC
:10199000CB2C1730B0000130CF00D0008A11F622D6
:1019A0008A15753003178D0001308F0003100A303F
:1019B0000313C9008A1173238A153008C900013046
:1019C000CA008A11D7238A150230C9009630CF0089
:1019D0008A1148228A15C90BE62C831685168312B4
:1019E000851E3B2C0230C9009630CF008A11482258
:1019F0008A15C90BF42CF13003178D0001308F00CC
:101A00008A1103132D238A15FA3003178D00013034
:101A10008F008A1103132D238A15831685148312D0
:101A20008518172D831605158312051DAD2B8316FA
:101A3000851483128518C8038316051583120519AA
:101A4000C80ABB2D033003178D0002308F008A11A6
:101A500003132D238A150C3003178D0002308F00DD
:101A60008A1103132D238A15831685168312851E6A
:101A70007A2D0230C9009630CF008A1148228A158B
:101A8000C90B3B2D863003178D0001308F008A1162
:101A900003132D238A15903003178D0001308F001A
:101AA0008A1103132D238A15831685168312851E2A
:101AB000542D0230C9009630CF008A1148228A1571
:101AC000C90B5B2D0130CF00D0008A11F6228A1598
:101AD000143003178D0002308F008A1103132D2359
:101AE0008A151D3003178D0002308F008A110313F1
:101AF0002D238A158316851483128518842D831649
:101B000005158312051D342D83168514831285183F
:101B1000C8038316051583120519C80ABB2D253085
:101B200003178D0002308F008A1103132D238A15AD
:101B30002E3003178D0002308F008A1103132D23DE
:101B40008A15831685168312851AB02D831685147F
:101B500083128518B02D831605158312051DA12D3E
:101B60008316851483128518C803831605158312FE
:101B70000519C80ABB2D831685168312851E0B28EE
:101B80000230C9009630CF008A1148228A15C90B4D
:101B9000C22D320BDD2DC901CA01403084008313F0
:101BA000490884074A088A1139208A1580000038BC
:101BB0000319DD2DCA0AC90ACD2D3208023C031DC6
:101BC000F32DC901CA0140308400831349088407FA
:101BD0004A088A1143208A15800000380319F32D22
:101BE000CA0AC90AE32D3208033C031D092EC901A4
:101BF000CA01403084008313490884074A088A11C7
:101C00004E208A15800000380319092ECA0AC90A15
:101C1000F92D3208043C031D1F2EC901CA014030B2
:101C200084008313490884074A088A1159208A15B9
:101C30008000003803191F2ECA0AC90A0F2E320865
:101C4000053C031D352EC901CA01403084008313B1
:101C5000490884074A088A1164208A1580000038E0
:101C60000319352ECA0AC90A252E3208063C031D5F
:101C70004B2EC901CA0140308400831349088407F0
:101C80004A088A1170208A158000003803194B2EEB
:101C9000CA0AC90A3B2E3208073C031D612EC9013E
:101CA000CA01403084008313490884074A088A1116
:101CB0007B208A15800000380319612ECA0AC90AE0
:101CC000512E373003178D0002308F00031005307E
:101CD0000313C9008A1173238A152908C90001302A
:101CE000CA008A11D7238A153A30CE008A110823F8
:101CF0008A152A08C9000130CA008A11D7238A151B
:101D00003A30CE008A1108238A152B08C900013009
:101D1000CA008A11D7238A150A30CE008A110823F7
:101D20008A154030840083138A110C248A152030D0
:101D3000CE008A1108238A152C08C9000130CA0078
:101D40008A11D7238A152F30CE008A1108238A15CD
:101D50002D08C9000130CA008A11D7238A152F30F7
:101D6000CE008A1108238A153230CE008A1108234A
:101D70008A153030CE008A1108238A152E08C90032
:101D80000130CA008A11D7238A158A110A12FB2C46
:101D90000A108A140A158207262859299B2B222DFE
:021DA0008F2D85
:02400E00713F00
:00000001FF
;PIC16F876A
;CRC=10F8  CREATED="14-nov-17 16:08"
