:1000000000308A00E12800008316861083128610D3
:100010008316861183128615831686138312861320
:10002000831606138312061783168612831286120E
:1000300083160612831206168A110A1219298316CC
:1000400086108312861483168611831286158316F2
:1000500086138312861783160613831206138316DC
:1000600086128312861683160612831206128A11CE
:100070000A12192983168610831286108316861198
:10008000831286158316861383128613831606132E
:10009000831206178316861283128616831606129B
:1000A000831206128A110A121929831686108312E6
:1000B0008610831686118312861583168613831283
:1000C000861783160613831206138316861283126D
:1000D000861283160612831206168A110A1219292D
:1000E0008316861183128611831686108312861456
:1000F0008A110A1219290330A402031C892824300A
:100100008400831300080319892887288728800B17
:1001100086280800233084008313000803199D28D3
:100120000630F800F701F70B9328F80B92287B3084
:10013000F700F70B9928800B90280800A0012008F1
:10014000133C031CBB28221022088316870083124D
:1001500007140330A300C730A4007B20A30BAB28F7
:100160002210220883168700831207101230A30082
:100170008A20A00A9F288A110A121929A0012008A2
:10018000133C031CDE2822102208831687008312EA
:1001900007140230A3008A200230A300C730A40055
:1001A0007B20A30BCE2822102208831687008312FF
:1001B00007101230A3008A20A00ABF288A110A1251
:1001C000192903081F398300813083169900A6304E
:1001D0009800903083129800FF30A20083161F14FD
:1001E0009F141F159F1107309C00831383128C1ED0
:1001F000F7281A08A10041302102F73E03181929F7
:10020000093E1B298316061083120614192983162A
:100210000610831206101929042819291F281929E4
:100220003A28192955281929702819299E28192989
:10023000BE28F72863000A148A100A1182070229CF
:1002400007290C290E2910291229142916291829E1
:02400E00723FFF
:00000001FF
;PIC16F876A
;CRC=9603  CREATED="28-ene.-18 11:49"
