:1000000000308A0004280000FF238316900000308F
:100010008A000A2803081F3983001F1383161F1044
:100020009F101F119F110730831299001F13831611
:100030001F149F101F119F111F169F161F1383124D
:100040009F171F140030A1001F08F33921049F00DF
:100050000330A000A00B2A289F149F182D28831678
:100060001E088312A5001E08A6008316851583129C
:1000700085194A28A608031D41282508643C031851
:10008000462883168510831285144A288316851006
:10009000831285102608003C03185A28FF3A031DD6
:1000A000552825082C3C03185A288316051183125D
:1000B00005155E2883160511831205112608013CDB
:1000C00003186E28FF3A031D69282508BC3C031855
:1000D0006E288316051283120516722883160512E0
:1000E000831205122608023C03188228FF3A031DDA
:1000F0007D282508843C03188228831685128312E4
:10010000851686288316851283128512222863009D
:02400E00C411DB
:00000001FF
;PIC12F675
;CRC=70D0  CREATED="18-ene-18 10:19"
